S0190000737072696E74735F696E746572666163652E73726563E8
S11300000C9432000C9444000C9444000C9444006E
S11300100C9444000C9444000C9444000C9444004C
S11300200C9444000C9444000C9444000C9444003C
S11300300C9444000C9444000C9444000C9444002C
S11300400C9444000C9444000C9444000C9444001C
S11300500C944400A200B300C400D500E600F700ED
S11300600801190111241FBECFE5D8E0DEBFCDBFC2
S113007020E0A0E6B0E001C01D92A236B207E1F78D
S11300800E9477010C94D9020C94000060E082E491
S11300900E94370160E081E40E94500161E081E444
S11300A00E94500162E081E40E94500163E081E417
S11300B00E94500160E081E40E946A0161E081E4F1
S11300C00E946A0162E081E40E946A0163E081E4C3
S11300D00E946A01089541E650E060E082E40E94D3
S11300E0440180916100882309F4C0C02FEF86E7A2
S11300F091E0215080409040E1F700C0000041E6CB
S113010050E060E082E40E94440180916100882311
S113011009F4ACC041E650E060E082E40E9444018E
S113012080916000E1E0E80FE09360008E2F90E0A2
S1130130FC013197E830F10508F094C0E65DFF4F0B
S11301400C94D30260E081E40E945D0161E081E4EB
S11301500E946A0162E081E40E946A0163E081E432
S11301600E946A017FC060E081E40E945D0161E059
S113017081E40E945D0162E081E40E946A0163E01F
S113018081E40E946A016EC060E081E40E945D0126
S113019061E081E40E945D0162E081E40E945D010E
S11301A063E081E40E946A015DC060E081E40E9432
S11301B05D0161E081E40E945D0162E081E40E94EE
S11301C05D0163E081E40E945D014CC060E081E474
S11301D00E946A0161E081E40E945D0162E081E4C1
S11301E00E945D0163E081E40E945D013BC060E028
S11301F081E40E946A0161E081E40E946A0162E094
S113020081E40E945D0163E081E40E945D012AC0F3
S113021060E081E40E946A0161E081E40E946A0175
S113022062E081E40E946A0163E081E40E945D016E
S113023019C060E081E40E946A0161E081E40E94E7
S11302406A0162E081E40E946A0163E081E40E9441
S11302506A011092600006C041E650E060E082E46A
S11302600E944401809161008111F6CF0895853484
S113027038F4683038F440E00E947C0180E008954E
S113028081E0089582E00895853430F4683030F4D4
S11302900E94920280E0089581E0089582E008952A
S11302A0853438F4683038F441E00E947C0180E001
S11302B0089581E0089582E00895853438F4683023
S11302C038F441E00E94070280E0089581E0089537
S11302D082E00895853438F4683038F440E00E94B0
S11302E0070280E0089581E0089582E008950E9465
S11302F046000E946B00FDCF683008F080C04423A4
S113030021F0413009F440C07CC08234B1F018F4CB
S1130310813431F078C08334E9F0843441F173C01E
S11303202AB381E090E002C0880F991F6A95E2F732
S1130330809582238ABB80E0089527B381E090E012
S113034002C0880F991F6A95E2F78095822387BBC4
S113035080E0089524B381E090E002C0880F991FE3
S11303606A95E2F78095822384BB80E0089521B3E7
S113037081E090E002C0880F991F6A95E2F78095AA
S1130380822381BB80E008958234A9F018F481347B
S113039031F03BC08334D9F0843429F136C02AB318
S11303A081E090E002C0880F991F6A95E2F7822BE2
S11303B08ABB80E0089527B381E090E002C0880FF3
S11303C0991F6A95E2F7822B87BB80E0089524B3D6
S11303D081E090E002C0880F991F6A95E2F7822BB2
S11303E084BB80E0089521B381E090E002C0880FCF
S11303F0991F6A95E2F7822B81BB80E0089582E021
S1130400089584E0089581E0089581E008956830B6
S113041008F080C0442321F0413009F440C07CC07E
S11304208234B1F018F4813431F078C08334E9F0C7
S1130430843441F173C02BB381E090E002C0880F93
S1130440991F6A95E2F7809582238BBB80E008951B
S113045028B381E090E002C0880F991F6A95E2F703
S11304608095822388BB80E0089525B381E090E0E5
S113047002C0880F991F6A95E2F78095822385BB95
S113048080E0089522B381E090E002C0880F991FB4
S11304906A95E2F78095822382BB80E008958234D6
S11304A0A9F018F4813431F03BC08334D9F084349A
S11304B029F136C02BB381E090E002C0880F991F68
S11304C06A95E2F7822B8BBB80E0089528B381E024
S11304D090E002C0880F991F6A95E2F7822B88BBCF
S11304E080E0089525B381E090E002C0880F991F51
S11304F06A95E2F7822B85BB80E0089522B381E000
S113050090E002C0880F991F6A95E2F7822B82BBA4
S113051080E0089582E0089583E0089581E00895DD
S113052081E008956830D8F58234A9F018F4813454
S113053031F037C08334D9F0843429F132C089B31F
S113054090E002C0959587956A95E2F78170FA016B
S1130550808380E0089586B390E002C095958795E6
S11305606A95E2F78170FA01808380E0089583B38D
S113057090E002C0959587956A95E2F78170FA013B
S1130580808380E0089580B390E002C095958795BC
S11305906A95E2F78170FA01808380E0089582E031
S11305A0089581E00895EE0FFF1F0590F491E02D6A
S10905B00994F894FFCF4A
S9030000FC
