S0190000737072696E74735F696E746572666163652E73726563E8
S11300000C942A000C943F000C943F000C943F0085
S11300100C943F000C943F000C943F000C943F0060
S11300200C943F000C943F000C943F000C943F0050
S11300300C943F000C943F000C943F000C943F0040
S11300400C943F000C943F000C943F000C943F0030
S11300500C943F0011241FBECFE5D8E0DEBFCDBF16
S113006010E0A0E6B0E0E4E9F4E002C005900D92EF
S1130070A038B107D9F70E9497000C9448020C9459
S1130080000088E00E948E0089E00E948E008AE0D1
S11300900E948E008BE00E948E00C0E0D0E08FE1D1
S11300A00E948C008111FBCFC430D1053CF018E0D4
S11300B0EE24E394F12CC3E0D0E010C08C2F885FD1
S11300C00E94910021968FE10E948C008823D9F32D
S11300D0E6CF8FE10E948C00882321F0E114F10423
S11300E0C1F710C0812F0E9494002197D7FD06C04C
S11300F08FE10E948C008823D9F302C0E12CF12CFB
S11301001F5FECCF2FEF82E597E0215080409040B5
S1130110E1F700C00000C1CF0C942A0260E00C9407
S11301209E0061E00C94A40160E00C94A4010E9480
S113013091010E94410080E090E00895803208F02F
S1130140ECC0982F9695969596958770613009F432
S11301504BC020F0623009F491C0E1C0923021F12B
S1130160933091F1913081F04AB321E030E0B9014C
S113017002C0660F771F8A95E2F7CB01942F982B64
S11301809ABB9BB3809545C047B321E030E0B901E9
S113019002C0660F771F8A95E2F7CB01942F982B44
S11301A097BB98B3809546C044B321E030E0B901D1
S11301B002C0660F771F8A95E2F7CB01942F982B24
S11301C094BB95B3809547C041B321E030E0B901B9
S11301D002C0660F771F8A95E2F7CB01942F982B04
S11301E091BB92B3809548C0923031F19330A9F11C
S11301F0913089F04AB321E030E0B90102C0660FC2
S1130200771F8A95E2F7CB018095942F98239ABBA8
S11302109BB3892349C047B321E030E0B90102C050
S1130220660F771F8A95E2F7CB018095942F982368
S113023097BB98B389234AC044B321E030E0B901A5
S113024002C0660F771F8A95E2F7CB018095942F41
S1130250982394BB95B389234BC041B321E030E08C
S1130260B90102C0660F771F8A95E2F7CB0180952A
S1130270942F982391BB92B389234CC0923041F1BF
S11302809330C1F1913091F04AB321E030E0B901EB
S113029002C0660F771F8A95E2F7CB01962F9095DF
S11302A094239ABB9BB3892B8BBB35C047B321E006
S11302B030E0B90102C0660F771F8A95E2F7CB01DF
S11302C0962F9095942397BB98B3892B88BB23C012
S11302D044B321E030E0B90102C0660F771F8A956C
S11302E0E2F7CB01962F9095942394BB95B3892B79
S11302F085BB11C041B321E030E0B90102C0660FF3
S1130300771F8A95E2F7CB01962F9095942391BBA2
S113031092B3892B82BB80E0089582E0089584E043
S113032008950F931F93CF9300E610E0C0E0F80107
S113033061918F018C2F0E949E00CF5FC032B9F76C
S1130340CF911F910F910895803208F07FC0982FAC
S113035096959695969587706623C9F1613009F054
S113036077C09230E1F0933031F1913061F04BB3CA
S113037021E030E0B90102C0660F771F8A95E2F7E9
S1130380CB01842B36C048B321E030E0B90102C070
S1130390660F771F8A95E2F7CB01842B38C045B3EB
S11303A021E030E0B90102C0660F771F8A95E2F7B9
S11303B0CB01842B3AC042B321E030E0B90102C042
S11303C0660F771F8A95E2F7CB01842B3DC09230EC
S11303D001F1933069F1913071F04BB321E030E0D9
S11303E0B90102C0660F771F8A95E2F7CB018095A9
S11303F084238BBB1BC048B321E030E0B90102C0A9
S1130400660F771F8A95E2F7CB018095842388BB1A
S11304100DC045B321E030E0B90102C0660F771F7B
S11304208A95E2F7CB018095842385BB80E008950B
S113043042B321E030E0B90102C0660F771F8A950C
S1130440E2F7CB018095842382BBF0CF82E008954C
S113045083E008958032D0F4282F277086958695FE
S11304608695823041F0833041F0813011F089B3B8
S113047005C086B303C083B301C080B390E002C05B
S1130480959587952A95E2F7982F9170892F08956D
S1070490F894FFCF0A
S11304940000000000000001010101000000000050
S11304A40000000000000000000000000000000242
S9030000FC
