S0190000737072696E74735F696E746572666163652E73726563E8
S11300000C942A000C943F000C943F000C943F0085
S11300100C943F000C943F000C943F000C943F0060
S11300200C943F000C943F000C943F000C943F0050
S11300300C943F000C943F000C943F000C943F0040
S11300400C943F000C943F000C943F000C943F0030
S11300500C943F0011241FBECFE5D8E0DEBFCDBF16
S113006010E0A0E6B0E0E0EDF4E002C005900D92EF
S1130070A038B107D9F70E94B1000C9466020C9421
S11300800000CF93DF931F92CDB7DEB788E00E94C4
S1130090A80089E00E94A8008AE00E94A8008BE0E2
S11300A00E94A80081E0898300E010E0BE016F5F38
S11300B07F4F8FE10E94A60089818111F7CF043020
S11300C0110544F088E0F82ECC24C394D12C03E02D
S11300D010E019C088E0800F0E94AB000F5F1F4F33
S11300E02FEF82E597E0215080409040E1F700C077
S11300F00000DCCFBE016F5F7F4F8FE10E94A6003E
S11301008981882321F0C114D104A1F715C08F2D52
S11301100E94AE000150110917FD0AC02FEF82E5BD
S113012097E0215080409040E1F700C0000002C0F9
S1130130C12CD12CF394E7CF2FEF82E597E0215027
S113014080409040E1F700C00000AECF0C94440220
S113015060E00C94B80061E00C94BE0160E00C9483
S1130160BE010E94AB010E94410080E090E008952E
S1130170803208F0ECC0982F9695969596958770E6
S1130180613009F44BC020F0623009F491C0E1C041
S1130190923021F1933091F1913081F04AB321E012
S11301A030E0B90102C0660F771F8A95E2F7CB01F0
S11301B0942F982B9ABB9BB3809545C047B321E0FD
S11301C030E0B90102C0660F771F8A95E2F7CB01D0
S11301D0942F982B97BB98B3809546C044B321E0E5
S11301E030E0B90102C0660F771F8A95E2F7CB01B0
S11301F0942F982B94BB95B3809547C041B321E0CD
S113020030E0B90102C0660F771F8A95E2F7CB018F
S1130210942F982B91BB92B3809548C0923031F1C2
S11302209330A9F1913089F04AB321E030E0B9016B
S113023002C0660F771F8A95E2F7CB018095942F51
S113024098239ABB9BB3892349C047B321E030E08C
S1130250B90102C0660F771F8A95E2F7CB0180953A
S1130260942F982397BB98B389234AC044B321E0C1
S113027030E0B90102C0660F771F8A95E2F7CB011F
S11302808095942F982394BB95B389234BC041B395
S113029021E030E0B90102C0660F771F8A95E2F7CA
S11302A0CB018095942F982391BB92B389234CC0A2
S11302B0923041F19330C1F1913091F04AB321E091
S11302C030E0B90102C0660F771F8A95E2F7CB01CF
S11302D0962F909594239ABB9BB3892B8BBB35C0E7
S11302E047B321E030E0B90102C0660F771F8A9559
S11302F0E2F7CB01962F9095942397BB98B3892B63
S113030088BB23C044B321E030E0B90102C0660FCA
S1130310771F8A95E2F7CB01962F9095942394BB8F
S113032095B3892B85BB11C041B321E030E0B901FD
S113033002C0660F771F8A95E2F7CB01962F90953E
S1130340942391BB92B3892B82BB80E0089582E011
S1130350089584E008950F931F93CF9300E610E06F
S1130360C0E0F80161918F018C2F0E94B800CF5F2B
S1130370C032B9F7CF911F910F910895803208F0E0
S11303807FC0982F96959695969587706623C9F1A8
S1130390613009F077C09230E1F0933031F191305F
S11303A061F04BB321E030E0B90102C0660F771F62
S11303B08A95E2F7CB01842B36C048B321E030E0C4
S11303C0B90102C0660F771F8A95E2F7CB01842B2F
S11303D038C045B321E030E0B90102C0660F771F91
S11303E08A95E2F7CB01842B3AC042B321E030E096
S11303F0B90102C0660F771F8A95E2F7CB01842BFF
S11304003DC0923001F1933069F1913071F04BB3FA
S113041021E030E0B90102C0660F771F8A95E2F748
S1130420CB01809584238BBB1BC048B321E030E013
S1130430B90102C0660F771F8A95E2F7CB01809558
S1130440842388BB0DC045B321E030E0B90102C06C
S1130450660F771F8A95E2F7CB018095842385BBCD
S113046080E0089542B321E030E0B90102C0660F94
S1130470771F8A95E2F7CB018095842382BBF0CF66
S113048082E0089583E00895FB0110828032E0F455
S1130490282F2770869586958695823041F0833083
S11304A089F0813011F089B303C086B301C083B3EE
S11304B090E002C0959587952A95E2F78170808334
S11304C080E0089580B3F4CF82E00895F894FFCFDC
S11304D00000000000000001010101000000000014
S11304E00000000000000000000000000000000206
S9030000FC
