S0190000737072696E74735F696E746572666163652E73726563E8
S11300000C942A000C94C6020C94EF020C9418036E
S11300100C9447000C9447000C9447000C94470040
S11300200C9447000C9447000C9447000C94470030
S11300300C9447000C9447000C9447000C94470020
S11300400C9447000C9447000C9447000C94470010
S11300500C94470011241FBECFE5D8E0DEBFCDBF0E
S113006010E0A0E6B0E0EAE7FCE002C005900D92E3
S1130070A638B107D9F720E0A6E8B0E001C01D9288
S1130080A039B207E1F70E944E010C943B060C9490
S113009000008091860090918700079769F4809111
S11300A0880090918900877F9093890080938800CD
S11300B0109287001092860020918600309187006C
S11300C060918800709189002430310560F441E02A
S11300D050E0022E02C0440F551F0A94E2F7CB01F0
S11300E0842B952B0EC0A9014450510981E090E066
S11300F002C0880F991F4A95E2F780959095862350
S1130100972390938900809388002F5F3F4F30930B
S11301108700209386000895809164009091650083
S113012083309105C9F1A8F48130910531F102972A
S113013009F04EC088EC90E09093610080936000D9
S113014080E293E0909363008093620083E090E008
S11301504DC08430910579F10597D1F580E293E0A3
S1130160909361008093600088EC90E0909363002A
S11301708093620086E090E039C084E690E090933A
S113018061008093600084E893E09093630080931F
S1130190620082E090E02AC08CE291E090936100DA
S11301A0809360008CEB92E09093630080936200F4
S11301B084E090E01BC084EF91E090936100809311
S11301C06000909363008093620085E090E00EC02D
S11301D084E690E0909361008093600084E893E06B
S11301E0909363008093620081E090E090936500B7
S11301F0809364000895409162005091630060917F
S113020060007091610080918800909189000E9443
S11302104101809164008BBBEECF88E00E943E01D7
S113022089E00E943E018AE00E943E018BE00E9428
S11302303E018FE10E943B018AE10E943B018BE178
S11302400E943B01789480E00E945B0263E080E0BE
S11302500E946B026CE870E080E00E94B10281E0D1
S11302600E945B0263E081E00E946B0269E470E03B
S113027081E00C94B10262E00C94550160E00C94AE
S11302805501CF93DF93EA0188BBCB010E9454034D
S113029018BACE01DF91CF910C9454030E94480206
S11302A00E940D010E94FB00FFCF803208F0ECC0D9
S11302B0982F9695969596958770613009F44BC062
S11302C020F0623009F491C0E1C0923021F1933002
S11302D091F1913081F04AB321E030E0B90102C0DC
S11302E0660F771F8A95E2F7CB01942F982B9ABB60
S11302F09BB3809545C047B321E030E0B90102C00B
S1130300660F771F8A95E2F7CB01942F982B97BB42
S113031098B3809546C044B321E030E0B90102C0EF
S1130320660F771F8A95E2F7CB01942F982B94BB25
S113033095B3809547C041B321E030E0B90102C0D4
S1130340660F771F8A95E2F7CB01942F982B91BB08
S113035092B3809548C0923031F19330A9F1913035
S113036089F04AB321E030E0B90102C0660F771F7B
S11303708A95E2F7CB018095942F98239ABB9BB37F
S1130380892349C047B321E030E0B90102C0660FB8
S1130390771F8A95E2F7CB018095942F982397BB1A
S11303A098B389234AC044B321E030E0B90102C0C4
S11303B0660F771F8A95E2F7CB018095942F9823D7
S11303C094BB95B389234BC041B321E030E0B9011C
S11303D002C0660F771F8A95E2F7CB018095942FB0
S11303E0982391BB92B389234CC0923041F193304E
S11303F0C1F1913091F04AB321E030E0B90102C07B
S1130400660F771F8A95E2F7CB01962F9095942378
S11304109ABB9BB3892B8BBB35C047B321E030E03B
S1130420B90102C0660F771F8A95E2F7CB01962FB8
S11304309095942397BB98B3892B88BB23C044B36E
S113044021E030E0B90102C0660F771F8A95E2F718
S1130450CB01962F9095942394BB95B3892B85BBA0
S113046011C041B321E030E0B90102C0660F771F2B
S11304708A95E2F7CB01962F9095942391BB92B382
S1130480892B82BB80E0089582E0089584E008957A
S11304900F931F93CF9306E610E0C0E0F80161913B
S11304A08F018C2F0E945501CF5FC032B9F7CF91D5
S11304B01F910F910895813039F018F0823039F08E
S11304C008958BB7806405C08BB7806802C08BB772
S11304D080628BBF08958130F1F018F08230B1F161
S11304E00895613049F028F0623061F0633069F0BA
S11304F0089585B78E7F02C085B7816085BF85B7B3
S11305008D7F22C085B78E7F02C085B7816085BF8D
S113051085B7826019C0613049F028F0623061F01B
S1130520633069F0089585B78B7F02C085B7846016
S113053085BF85B7877F08C085B78B7F02C085B725
S1130540846085BF85B7886085BF0895623029F0CF
S1130550633019F484B7806402C084B78F7B84BF8E
S11305600895813049F018F0823059F0089570935D
S11305708F0060938E00089570938D0060938C00BB
S1130580089570938B0060938A0008951F920F92D0
S11305900FB60F9211242F933F934F935F936F9352
S11305A07F938F939F93AF93BF93EF93FF93E091C8
S11305B08E00F0918F00309709F00995FF91EF912B
S11305C0BF91AF919F918F917F916F915F914F9167
S11305D03F912F910F900FBE0F901F9018951F926F
S11305E00F920FB60F9211242F933F934F935F9363
S11305F06F937F938F939F93AF93BF93EF93FF93E7
S1130600E0918C00F0918D00309709F00995FF91ED
S1130610EF91BF91AF919F918F917F916F915F9176
S11306204F913F912F910F900FBE0F901F901895EF
S11306301F920F920FB60F9211242F933F934F9353
S11306405F936F937F938F939F93AF93BF93EF9336
S1130650FF93E0918A00F0918B00309709F009959F
S1130660FF91EF91BF91AF919F918F917F916F9186
S11306705F914F913F912F910F900FBE0F901F905C
S11306801895883040F493B7987F93BF93B7892B1C
S113069083BF80E0089581E0089583B713BE88B7CF
S11306A08E7F88BF12BE0895CF92DF92EF92FF92A1
S11306B0CF93DF93BC0180E090E00E94E8046B01DB
S11306C07C012FE632E143E85EE30E9440040E948D
S11306D029040E94B204EB01623071051CF16150DF
S11306E07109072E000C880B990B0E94EA042FE66F
S11306F032E143E85EE30E94CE059B01AC01C701F1
S1130700B6010E94BC032FE632E143E85AE30E949B
S113071040049B01AC0160E070E080E893E40E9437
S1130720BC0310C0A70196016FE672E183E89EE363
S11307300E94BC032FE632E143E85AE30E944004DE
S11307400E9425050E94B90462BF82E00E94410311
S113075080E090E008B600FEFDCF019628B7216046
S113076028BF8C179D07B4F3DF91CF91FF90EF90D2
S1130770DF90CF900C944D035058BB27AA270E94BA
S1130780D4030C947C050E946E0538F00E94750514
S113079020F039F49F3F19F426F40C946B050EF401
S11307A0E095E7FB0C943C05E92F0E948D0558F376
S11307B0BA17620773078407950720F079F4A6F542
S11307C00C94C7050EF4E0950B2EBA2FA02D0B0147
S11307D0B90190010C01CA01A0011124FF27591B82
S11307E099F0593F50F4503E68F11A16F040A22F88
S11307F0232F342F4427585FF3CF469537952795F9
S1130800A795F0405395C9F77EF41F16BA0B620BF7
S1130810730B840BBAF09150A1F0FF0FBB1F661F3E
S1130820771F881FC2F70EC0BA0F621F731F841F81
S113083048F4879577956795B795F7959E3F08F0A7
S1130840B0CF9395880F08F09927EE0F9795879569
S113085008950E94AF0590F09F3748F4911116F463
S11308600C94C80560E070E080E89FE3089526F0EA
S11308701B16611D711D811D0C9442050C945D05B0
S11308800E9454040C947C050E94750558F00E9443
S11308906E0540F029F45F3F29F00C943C0551119A
S11308A00C94C8050C946B050E948D0568F399237C
S11308B0B1F3552391F3951B550BBB27AA27621758
S11308C07307840738F09F5F5F4F220F331F441F65
S11308D0AA1FA9F335D00E2E3AF0E0E832D0915099
S11308E05040E695001CCAF72BD0FE2F29D0660F86
S11308F0771F881FBB1F261737074807AB07B0E8C9
S113090009F0BB0B802DBF01FF2793585F4F3AF0CE
S11309109E3F510578F00C943C050C94C8055F3F4C
S1130920E4F3983ED4F3869577956795B795F79554
S11309309F5FC9F7880F911D9695879597F908953C
S1130940E1E0660F771F881FBB1F621773078407D8
S1130950BA0720F0621B730B840BBA0BEE1F88F7E7
S1130960E09508950E94B9046894B1110C94C805E7
S113097008950E94950588F09F5798F0B92F9927FC
S1130980B751B0F0E1F0660F771F881F991F1AF076
S1130990BA95C9F714C0B13091F00E94C705B1E00F
S11309A008950C94C705672F782F8827B85F39F00E
S11309B0B93FCCF3869577956795B395D9F73EF40F
S11309C090958095709561957F4F8F4F9F4F0895B7
S11309D0E89409C097FB3EF49095809570956195D5
S11309E07F4F8F4F9F4F9923A9F0F92F96E9BB278B
S11309F09395F695879577956795B795F111F8CF07
S1130A00FAF4BB0F11F460FF1BC06F5F7F4F8F4F71
S1130A109F4F16C0882311F096E911C0772321F067
S1130A209EE8872F762F05C0662371F096E8862FFF
S1130A3070E060E02AF09A95660F771F881FDAF756
S1130A40880F9695879597F908950E94AF0590F0C1
S1130A509F3748F4911116F00C94C80560E070E0DB
S1130A6080E89FEB089526F41B16611D711D811DFE
S1130A700C9442050C945D0597F99F6780E870E03B
S1130A8060E00895882371F4772321F09850872B30
S1130A90762F07C0662311F499270DC09051862B39
S1130AA070E060E02AF09A95660F771F881FDAF7E6
S1130AB0880F9695879597F908959F3F31F0915047
S1130AC020F4879577956795B795880F911D96952E
S1130AD0879597F908959FEF80EC089500240A9470
S1130AE01616170618060906089500240A94121605
S1130AF01306140605060895092E0394000C11F438
S1130B00882352F0BB0F40F4BF2B11F460FF04C0E4
S1130B106F5F7F4F8F4F9F4F089557FD9058440F3D
S1130B20551F59F05F3F71F04795880F97FB991F48
S1130B3061F09F3F79F08795089512161306140605
S1130B40551FF2CF4695F1DF08C016161706180692
S1130B50991FF1CF869571056105089408950E9447
S1130B609505A0F0BEE7B91788F4BB279F3860F459
S1130B701616B11D672F782F8827985FF7CF8695B3
S1130B8077956795B11D93959639C8F30895E894C0
S1130B90BB2766277727CB0197F908950E94E105C3
S1130BA00C947C050E946E0538F00E94750520F0B7
S1130BB0952311F00C943C050C946B0511240C94B2
S1130BC0C8050E948D0570F3959FC1F3950F50E001
S1130BD0551F629FF001729FBB27F00DB11D639FEB
S1130BE0AA27F00DB11DAA1F649F6627B00DA11D91
S1130BF0661F829F2227B00DA11D621F739FB00D37
S1130C00A11D621F839FA00D611D221F749F3327A6
S1130C10A00D611D231F849F600D211D822F762F3F
S1130C206A2F11249F5750409AF0F1F088234AF01C
S1130C30EE0FFF1FBB1F661F771F881F9150504088
S1130C40A9F79E3F510580F00C943C050C94C8050F
S1130C505F3FE4F3983ED4F3869577956795B7950F
S1130C60F795E7959F5FC1F7FE2B880F911D969529
S10D0C70879597F90895F894FFCFD3
S1130C7A640084030100000000000000000000007A
S1130C8A0000000000000000000000000000000056
S1090C9A00000000000050
S9030000FC
