:100000000C942A000C9492020C94BB020C94E4020F
:100010000C9447000C9447000C9447000C94470044
:100020000C9447000C9447000C9447000C94470034
:100030000C9447000C9447000C9447000C94470024
:100040000C9447000C9447000C9447000C94470014
:100050000C94470011241FBECFE5D8E0DEBFCDBF12
:1000600010E0A0E6B0E0EEE1F6E002C005900D92EF
:10007000A038B107D9F720E0A0E8B0E001C01D9298
:10008000A838B207E1F70E9496000C940D030C9477
:1000900000008091800090918100089720F01092DC
:1000A00081001092800080918000909181008430C6
:1000B000910520F4885F0E94900003C08C5F0E942D
:1000C000930080918000909181000196909381002F
:1000D00080938000089588E00E948D0089E00E944E
:1000E0008D008AE00E948D008BE00E948D008FE1E0
:1000F0000E948A008AE10E948A00789480E00E942F
:10010000270263E080E00E94370269E470E080E04B
:100110000C947D0262E00C949B0060E00C949B00C8
:1001200061E00C94A10160E00C94A1010E948E0199
:100130000E946B00FFCF803208F0ECC0982F96959C
:10014000969596958770613009F44BC020F0623027
:1001500009F491C0E1C0923021F1933091F19130D6
:1001600081F04AB321E030E0B90102C0660F771F89
:100170008A95E2F7CB01942F982B9ABB9BB380957D
:1001800045C047B321E030E0B90102C0660F771FD8
:100190008A95E2F7CB01942F982B97BB98B3809563
:1001A00046C044B321E030E0B90102C0660F771FBA
:1001B0008A95E2F7CB01942F982B94BB95B3809549
:1001C00047C041B321E030E0B90102C0660F771F9C
:1001D0008A95E2F7CB01942F982B91BB92B380952F
:1001E00048C0923031F19330A9F1913089F04AB38F
:1001F00021E030E0B90102C0660F771F8A95E2F76F
:10020000CB018095942F98239ABB9BB3892349C037
:1002100047B321E030E0B90102C0660F771F8A952D
:10022000E2F7CB018095942F982397BB98B389234D
:100230004AC044B321E030E0B90102C0660F771F25
:100240008A95E2F7CB018095942F982394BB95B3C0
:1002500089234BC041B321E030E0B90102C0660FF1
:10026000771F8A95E2F7CB018095942F982391BB55
:1002700092B389234CC0923041F19330C1F1913057
:1002800091F04AB321E030E0B90102C0660F771F58
:100290008A95E2F7CB01962F909594239ABB9BB356
:1002A000892B8BBB35C047B321E030E0B90102C0D8
:1002B000660F771F8A95E2F7CB01962F90959423CE
:1002C00097BB98B3892B88BB23C044B321E030E0AF
:1002D000B90102C0660F771F8A95E2F7CB01962F0E
:1002E0009095942394BB95B3892B85BB11C041B3E2
:1002F00021E030E0B90102C0660F771F8A95E2F76E
:10030000CB01962F9095942391BB92B3892B82BBFE
:1003100080E0089582E0089584E008950F931F938C
:10032000CF9300E610E0C0E0F80161918F018C2FBF
:100330000E949B00CF5FC032B9F7CF911F910F9100
:100340000895803208F07FC0982F969596959695DF
:1003500087706623C9F1613009F077C09230E1F00F
:10036000933031F1913061F04BB321E030E0B901CD
:1003700002C0660F771F8A95E2F7CB01842B36C047
:1003800048B321E030E0B90102C0660F771F8A95BB
:10039000E2F7CB01842B38C045B321E030E0B9014E
:1003A00002C0660F771F8A95E2F7CB01842B3AC013
:1003B00042B321E030E0B90102C0660F771F8A9591
:1003C000E2F7CB01842B3DC0923001F1933069F10B
:1003D000913071F04BB321E030E0B90102C0660FFB
:1003E000771F8A95E2F7CB01809584238BBB1BC0D6
:1003F00048B321E030E0B90102C0660F771F8A954B
:10040000E2F7CB018095842388BB0DC045B321E082
:1004100030E0B90102C0660F771F8A95E2F7CB0181
:100420008095842385BB80E0089542B321E030E0CD
:10043000B90102C0660F771F8A95E2F7CB0180955C
:10044000842382BBF0CF82E0089583E00895813059
:1004500039F018F0823039F008958BB7806405C008
:100460008BB7806802C08BB780628BBF08958130E4
:10047000F1F018F08230B1F10895613049F028F0C0
:10048000623061F0633069F0089585B78E7F02C0F5
:1004900085B7816085BF85B78D7F22C085B78E7F88
:1004A00002C085B7816085BF85B7826019C06130A1
:1004B00049F028F0623061F0633069F0089585B743
:1004C0008B7F02C085B7846085BF85B7877F08C0F2
:1004D00085B78B7F02C085B7846085BF85B788608C
:1004E00085BF0895623029F0633019F484B78064C1
:1004F00002C084B78F7B84BF0895813049F018F023
:10050000823059F0089570938700609386000895B3
:1005100070938500609384000895709383006093C6
:10052000820008951F920F920FB60F9211242F93FD
:100530003F934F935F936F937F938F939F93AF936B
:10054000BF93EF93FF93E0918600F091870030977F
:1005500009F00995FF91EF91BF91AF919F918F9114
:100560007F916F915F914F913F912F910F900FBEAF
:100570000F901F9018951F920F920FB60F92112493
:100580002F933F934F935F936F937F938F939F939B
:10059000AF93BF93EF93FF93E0918400F0918500B8
:1005A000309709F00995FF91EF91BF91AF919F911D
:1005B0008F917F916F915F914F913F912F910F900C
:1005C0000FBE0F901F9018951F920F920FB60F92AB
:1005D00011242F933F934F935F936F937F938F9348
:1005E0009F93AF93BF93EF93FF93E0918200F091BD
:1005F0008300309709F00995FF91EF91BF91AF917A
:100600009F918F917F916F915F914F913F912F912A
:0E0610000F900FBE0F901F901895F894FFCF1B
:10061E0000000000000000000000000000000000CC
:10062E0000000000000000000000000000000000BC
:00000001FF
